{
  "_format": "hh-sol-artifact-1",
  "contractName": "FreeFund",
  "sourceName": "contracts/FreeFund.sol",
  "abi": [
    {
      "inputs": [
        {
          "internalType": "uint256",
          "name": "_target",
          "type": "uint256"
        },
        {
          "internalType": "uint256",
          "name": "_end",
          "type": "uint256"
        }
      ],
      "stateMutability": "nonpayable",
      "type": "constructor"
    },
    {
      "anonymous": false,
      "inputs": [
        {
          "indexed": false,
          "internalType": "uint256",
          "name": "amount",
          "type": "uint256"
        }
      ],
      "name": "Balance",
      "type": "event"
    },
    {
      "anonymous": false,
      "inputs": [
        {
          "indexed": true,
          "internalType": "address",
          "name": "from",
          "type": "address"
        },
        {
          "indexed": false,
          "internalType": "uint256",
          "name": "amount",
          "type": "uint256"
        }
      ],
      "name": "Deposit",
      "type": "event"
    },
    {
      "anonymous": false,
      "inputs": [
        {
          "indexed": true,
          "internalType": "address",
          "name": "to",
          "type": "address"
        },
        {
          "indexed": false,
          "internalType": "uint256",
          "name": "amount",
          "type": "uint256"
        }
      ],
      "name": "Returned",
      "type": "event"
    },
    {
      "anonymous": false,
      "inputs": [
        {
          "indexed": true,
          "internalType": "address",
          "name": "to",
          "type": "address"
        },
        {
          "indexed": false,
          "internalType": "uint256",
          "name": "amount",
          "type": "uint256"
        }
      ],
      "name": "Withdrawal",
      "type": "event"
    },
    {
      "inputs": [],
      "name": "balanceDai",
      "outputs": [
        {
          "internalType": "uint256",
          "name": "",
          "type": "uint256"
        }
      ],
      "stateMutability": "view",
      "type": "function"
    },
    {
      "inputs": [
        {
          "internalType": "uint256",
          "name": "",
          "type": "uint256"
        }
      ],
      "name": "clientList",
      "outputs": [
        {
          "internalType": "address",
          "name": "",
          "type": "address"
        }
      ],
      "stateMutability": "view",
      "type": "function"
    },
    {
      "inputs": [
        {
          "internalType": "address",
          "name": "",
          "type": "address"
        }
      ],
      "name": "clientStructs",
      "outputs": [
        {
          "internalType": "uint256",
          "name": "amountSent",
          "type": "uint256"
        },
        {
          "internalType": "uint256",
          "name": "returned",
          "type": "uint256"
        },
        {
          "internalType": "uint256",
          "name": "clientIndex",
          "type": "uint256"
        }
      ],
      "stateMutability": "view",
      "type": "function"
    },
    {
      "inputs": [],
      "name": "creator",
      "outputs": [
        {
          "internalType": "address",
          "name": "",
          "type": "address"
        }
      ],
      "stateMutability": "view",
      "type": "function"
    },
    {
      "inputs": [],
      "name": "deposit",
      "outputs": [
        {
          "internalType": "uint256",
          "name": "",
          "type": "uint256"
        }
      ],
      "stateMutability": "payable",
      "type": "function"
    },
    {
      "inputs": [],
      "name": "end",
      "outputs": [
        {
          "internalType": "uint256",
          "name": "",
          "type": "uint256"
        }
      ],
      "stateMutability": "view",
      "type": "function"
    },
    {
      "inputs": [],
      "name": "getCurrentTimeStamp",
      "outputs": [
        {
          "internalType": "uint256",
          "name": "",
          "type": "uint256"
        }
      ],
      "stateMutability": "view",
      "type": "function"
    },
    {
      "inputs": [],
      "name": "getSmartContractAddress",
      "outputs": [
        {
          "internalType": "address",
          "name": "",
          "type": "address"
        }
      ],
      "stateMutability": "view",
      "type": "function"
    },
    {
      "inputs": [
        {
          "internalType": "address",
          "name": "client",
          "type": "address"
        }
      ],
      "name": "isClient",
      "outputs": [
        {
          "internalType": "bool",
          "name": "",
          "type": "bool"
        }
      ],
      "stateMutability": "view",
      "type": "function"
    },
    {
      "inputs": [],
      "name": "receivedDai",
      "outputs": [
        {
          "internalType": "uint256",
          "name": "",
          "type": "uint256"
        }
      ],
      "stateMutability": "view",
      "type": "function"
    },
    {
      "inputs": [],
      "name": "returnedDai",
      "outputs": [
        {
          "internalType": "uint256",
          "name": "",
          "type": "uint256"
        }
      ],
      "stateMutability": "view",
      "type": "function"
    },
    {
      "inputs": [],
      "name": "start",
      "outputs": [
        {
          "internalType": "uint256",
          "name": "",
          "type": "uint256"
        }
      ],
      "stateMutability": "view",
      "type": "function"
    },
    {
      "inputs": [],
      "name": "target",
      "outputs": [
        {
          "internalType": "uint256",
          "name": "",
          "type": "uint256"
        }
      ],
      "stateMutability": "view",
      "type": "function"
    },
    {
      "inputs": [],
      "name": "withdrawAllFunds",
      "outputs": [],
      "stateMutability": "nonpayable",
      "type": "function"
    }
  ],
  "bytecode": "0x608060405233600160006101000a81548173ffffffffffffffffffffffffffffffffffffffff021916908373ffffffffffffffffffffffffffffffffffffffff16021790555042600255603c4201600355678ac7230489e800006004553460065534801561006c57600080fd5b50604051610e0f380380610e0f8339818101604052604081101561008f57600080fd5b810190808051906020019092919080519060200190929190505050735592ec0cfb4dbc12d3ab100b257153436a1f0fea6000806101000a81548173ffffffffffffffffffffffffffffffffffffffff021916908373ffffffffffffffffffffffffffffffffffffffff160217905550670de0b6b3a76400008202600481905550806003819055505050610ce8806101276000396000f3fe6080604052600436106100dd5760003560e01c8063bb1a86171161007f578063d4b8399211610059578063d4b8399214610359578063ebe3cfca14610384578063efbe1c1c146103af578063f9b4151b146103da576100dd565b8063bb1a86171461029d578063be9a655514610310578063d0e30db01461033b576100dd565b806349649fbf116100bb57806349649fbf1461018f5780636a2fe7a5146101a65780637e5e219c1461020b57806384b7964f14610236576100dd565b806302d05d3f146100e25780631cfc8366146101235780633b74cb3a1461014e575b600080fd5b3480156100ee57600080fd5b506100f7610405565b604051808273ffffffffffffffffffffffffffffffffffffffff16815260200191505060405180910390f35b34801561012f57600080fd5b5061013861042b565b6040518082815260200191505060405180910390f35b34801561015a57600080fd5b50610163610431565b604051808273ffffffffffffffffffffffffffffffffffffffff16815260200191505060405180910390f35b34801561019b57600080fd5b506101a4610439565b005b3480156101b257600080fd5b506101df600480360360208110156101c957600080fd5b810190808035906020019092919050505061083a565b604051808273ffffffffffffffffffffffffffffffffffffffff16815260200191505060405180910390f35b34801561021757600080fd5b50610220610879565b6040518082815260200191505060405180910390f35b34801561024257600080fd5b506102856004803603602081101561025957600080fd5b81019080803573ffffffffffffffffffffffffffffffffffffffff169060200190929190505050610881565b60405180821515815260200191505060405180910390f35b3480156102a957600080fd5b506102ec600480360360208110156102c057600080fd5b81019080803573ffffffffffffffffffffffffffffffffffffffff169060200190929190505050610949565b60405180848152602001838152602001828152602001935050505060405180910390f35b34801561031c57600080fd5b50610325610973565b6040518082815260200191505060405180910390f35b610343610979565b6040518082815260200191505060405180910390f35b34801561036557600080fd5b5061036e610b24565b6040518082815260200191505060405180910390f35b34801561039057600080fd5b50610399610b2a565b6040518082815260200191505060405180910390f35b3480156103bb57600080fd5b506103c4610b30565b6040518082815260200191505060405180910390f35b3480156103e657600080fd5b506103ef610b36565b6040518082815260200191505060405180910390f35b600160009054906101000a900473ffffffffffffffffffffffffffffffffffffffff1681565b60055481565b600030905090565b600160009054906101000a900473ffffffffffffffffffffffffffffffffffffffff1673ffffffffffffffffffffffffffffffffffffffff163373ffffffffffffffffffffffffffffffffffffffff16146104df576040517f08c379a0000000000000000000000000000000000000000000000000000000008152600401808060200182810382526038815260200180610c2d6038913960400191505060405180910390fd5b6003544211610539576040517f08c379a000000000000000000000000000000000000000000000000000000000815260040180806020018281038252604e815260200180610c65604e913960600191505060405180910390fd5b60045460008054906101000a900473ffffffffffffffffffffffffffffffffffffffff1673ffffffffffffffffffffffffffffffffffffffff166370a08231306040518263ffffffff1660e01b8152600401808273ffffffffffffffffffffffffffffffffffffffff16815260200191505060206040518083038186803b1580156105c357600080fd5b505afa1580156105d7573d6000803e3d6000fd5b505050506040513d60208110156105ed57600080fd5b81019080805190602001909291905050501015610655576040517f08c379a000000000000000000000000000000000000000000000000000000000815260040180806020018281038252602c815260200180610c01602c913960400191505060405180910390fd5b60008060009054906101000a900473ffffffffffffffffffffffffffffffffffffffff1673ffffffffffffffffffffffffffffffffffffffff166370a08231306040518263ffffffff1660e01b8152600401808273ffffffffffffffffffffffffffffffffffffffff16815260200191505060206040518083038186803b1580156106df57600080fd5b505afa1580156106f3573d6000803e3d6000fd5b505050506040513d602081101561070957600080fd5b8101908080519060200190929190505050905060008054906101000a900473ffffffffffffffffffffffffffffffffffffffff1673ffffffffffffffffffffffffffffffffffffffff1663a9059cbb33836040518363ffffffff1660e01b8152600401808373ffffffffffffffffffffffffffffffffffffffff16815260200182815260200192505050602060405180830381600087803b1580156107ad57600080fd5b505af11580156107c1573d6000803e3d6000fd5b505050506040513d60208110156107d757600080fd5b8101908080519060200190929190505050503373ffffffffffffffffffffffffffffffffffffffff167f7fcf532c15f0a6db0bd6d0e038bea71d30d808c7d98cb3bf7268a95bf5081b65826040518082815260200191505060405180910390a250565b6008818154811061084a57600080fd5b906000526020600020016000915054906101000a900473ffffffffffffffffffffffffffffffffffffffff1681565b600042905090565b60008060088054905014156108995760009050610944565b8173ffffffffffffffffffffffffffffffffffffffff166008600760008573ffffffffffffffffffffffffffffffffffffffff1673ffffffffffffffffffffffffffffffffffffffff16815260200190815260200160002060020154815481106108ff57fe5b9060005260206000200160009054906101000a900473ffffffffffffffffffffffffffffffffffffffff1673ffffffffffffffffffffffffffffffffffffffff161490505b919050565b60076020528060005260406000206000915090508060000154908060010154908060020154905083565b60025481565b600061098433610881565b610a3b576008339080600181540180825580915050600190039060005260206000200160009091909190916101000a81548173ffffffffffffffffffffffffffffffffffffffff021916908373ffffffffffffffffffffffffffffffffffffffff160217905550600160088054905003600760003373ffffffffffffffffffffffffffffffffffffffff1673ffffffffffffffffffffffffffffffffffffffff168152602001908152602001600020600201819055505b34600760003373ffffffffffffffffffffffffffffffffffffffff1673ffffffffffffffffffffffffffffffffffffffff168152602001908152602001600020600001600082825401925050819055503373ffffffffffffffffffffffffffffffffffffffff167fe1fffcc4923d04b559f4d29a8bfc6cda04eb5b0d3c460751c2402c5c5cc9109c346040518082815260200191505060405180910390a27fe8d947d7ebdd7b8b8fa2ad2022c7591418ac32d8c29c5f8a8fc9de52ffa54092610b02610b36565b6040518082815260200191505060405180910390a1610b1f610b36565b905090565b60045481565b60065481565b60035481565b60008060009054906101000a900473ffffffffffffffffffffffffffffffffffffffff1673ffffffffffffffffffffffffffffffffffffffff166370a08231306040518263ffffffff1660e01b8152600401808273ffffffffffffffffffffffffffffffffffffffff16815260200191505060206040518083038186803b158015610bc057600080fd5b505afa158015610bd4573d6000803e3d6000fd5b505050506040513d6020811015610bea57600080fd5b810190808051906020019092919050505090509056fe7468652070726f6a65637420686173206e6f74207265616368207468652066756e64696e67207461726765744f6e6c7920746865204672656546756e642070726f6a6563742063726561746f722063616e2063616c6c20746869732066756e6374696f6e50726f6a6563742066756e64732063616e206f6e6c792062652077697468647261776e2061742074686520656e64206f66207468652070726f6a6563742066756e64696e67206475726174696f6ea264697066735822122056c889cd89929c3025cbe146541fc8d075c9bac9f713cd40727a700c1f55962164736f6c63430007060033",
  "linkReferences": {},
  "deployedLinkReferences": {}
}